:020000040000FA
:1000000002005000000080FB120080B900030200D3
:100010003A900200AA82AB83900083788A790980A3
:1000200015E493A3AC82AD838A828B83F0A3AA826A
:10003000AB838C828D83D8E9D9E77582BD75830D3A
:1000400074001200627582037583007400120062EE
:1000500075D0007581BF751000751102759F000283
:100060000008C09FF59FE473D09F22D083D082C048
:100070009FE493C0E0740193C0E0740293F59F2263
:1000800079012251513A32333537343831343331F2
:1000900000323031342D31302D3031002030F8EC49
:1000A000676FFCF810F8F800FEFE000000003F7FCC
:1000B00060666773300F0F607F3F0000000000FE36
:1000C000929292FE92929292FE00000020380000DE
:1000D0003C4040424C404070041830004041C60053
:1000E00000F2525256FA5A56F200000040201F20E9
:1000F000405F4242425F4A524F404000804030FCE5
:10010000070AA8A8A9AEAAA8A80808000000007FAE
:1001100000007E22222222227E00000020202424B1
:10012000A4643C272424A4242420200000000000F0
:100130000101091129450301000000000010608041
:1001400000FF000000FF0080603810002020202306
:10015000213F2020203F2221203020000040424229
:10016000424242FEC24242424242400040402010CF
:10017000080403003F40404040407000406058C7C2
:100180006200909090FF90929C9480002022231215
:100190001212202010130C142240F8008082828258
:1001A000FE8282828282FE828282800000804030D3
:1001B0000F0000000000FF00000000000000181603
:1001C00010D0B89790909092941000000020108C5E
:1001D0008380414628102844438080001010D0FFBF
:1001E000901000FC24E4242223E20000040300FF1A
:1001F0000083601F804126182641800000083000DF
:10020000FF20202020FF2020222C200004040201B7
:10021000FF8040300E0106182040800000048484D6
:100220004424548F14244484840400004139000081
:100230003C4040424C404070040931000000000046
:100240000000000000000000000000000000363642
:100250000000000000000000000000000004047422
:10026000545455565454547404040000848341215A
:100270001D05050505057D818185E3000202827269
:10028000020202FE0202824232020200808140200B
:10029000100C0300030C102040808000101010FF91
:1002A0009020988888E98E8888A898000242817FEB
:1002B000000080844B2810284780000002020202C0
:1002C0000202FE020242820202020200000000005C
:1002D0000000FF00000000010600000002E22222F0
:1002E0003E0000F94A4CF84C4AF9000000438242B3
:1002F0003E0010131212FF1212131000404848481B
:10030000FF484800C4444444FC00000080601F20B3
:100310007F4444404F505050505C4000000000006B
:10032000000000000000000000000000000000F8D5
:1003300000000000000000333000000000100C0638
:10034000100C0600000000000000000040C07840D3
:10035000C0784000043F04043F040400007088FC9F
:1003600008300000001820FF211E0000F008F000F7
:10037000E018000000211C031E211E0000F0088868
:10038000700000001E2123241927211010160E00D2
:10039000000000000000000000000000000000E07D
:1003A0001804020000000007182040000002041892
:1003B000E00000000040201807000000404080F0EE
:1003C000804040000202010F01020200000000F024
:1003D000000000000101011F0101010000000000F8
:1003E0000000000080B0700000000000000000006D
:1003F00000000000000101010101010100000000F6
:10040000000000000030300000000000000000008C
:1004100080601804006018060100000000E0100869
:100420000810E000000F102020100F00001010F83E
:10043000000000000020203F20200000007008087D
:1004400008887000003028242221300000300888FD
:10045000884830000018202020110E000000C02025
:1004600010F8000000070424243F240000F8088846
:10047000880808000019212020110E0000E01088D3
:1004800088180000000F112020110E000038080805
:10049000C83808000000003F000000000070880815
:1004A00008887000001C222121221C0000E0100896
:1004B0000810E0000000312222110F00000000C0EF
:1004C000C00000000000003030000000000000808C
:1004D000000000000000806000000000000080407C
:1004E0002010080000010204081020004040404095
:1004F00040404000040404040404040000081020E8
:10050000408000000020100804020100007048082C
:100510000808F0000000003036010000C030C82894
:10052000E810E0000718272423140B000000C0384F
:10053000E0000000203C23020227382008F88888C9
:1005400088700000203F202020110E00C0300808D5
:1005500008083800071820202010080008F80808AC
:100560000810E000203F202020100F0008F88888A5
:10057000E8081000203F20202320180008F8888871
:10058000E8081000203F200003000000C0300808E9
:100590000838000007182020221E020008F8080072
:1005A0000008F808203F210101213F20000808F839
:1005B000080800000020203F20200000000008085C
:1005C000F8080800C08080807F00000008F888C01C
:1005D00028180800203F20012638200008F80800CD
:1005E00000000000203F20202020300008F8F80004
:1005F000F8F80800203F003F003F200008F830C016
:100600000008F808203F200007183F00E010080805
:100610000810E0000F10202020100F0008F8080834
:100620000808F000203F210101010000E010080847
:100630000810E0000F18242438504F0008F888886C
:1006400088887000203F2000030C3020007088084C
:10065000080838000038202121221C00180808F85A
:10066000080818000000203F2000000008F80800DB
:100670000008F808001F202020201F0008788800AC
:1006800000C83808000007380E010000F80800F81C
:100690000008F800033C0700073C030008186880C6
:1006A0008068180820302C03032C30200838C8003C
:1006B000C83808000000203F20000000100808088B
:1006C000C83808002038262120201800000000FE2D
:1006D000020202000000007F40404000000C30C0D9
:1006E00000000000000000010638C0000002020205
:1006F000FE000000004040407F00000000000402B7
:1007000002020400000000000000000000000000E1
:1007100000000000808080808080808000020204D1
:1007200000000000000000000000000000008080C9
:10073000808000000019242222223F2008F8008037
:1007400080000000003F112020110E0000000080FA
:1007500080800000000E1120202011000000008089
:100760008088F800000E112020103F2000008080BB
:1007700080800000001F222222221300008080F0CF
:10078000888888180020203F2020000000008080FA
:1007900080808000006B94949493600008F800803F
:1007A00080800000203F210000203F20008098989A
:1007B000000000000020203F2020000000000080FA
:1007C0009898000000C08080807F000008F800003A
:1007D00080808000203F24022D302000000808F88F
:1007E000000000000020203F20200000808080804A
:1007F00080808000203F20003F20003F80800080DC
:1008000080800000203F210000203F2000008080E9
:1008100080800000001F202020201F00808000809A
:100820008000000080FFA12020110E000000008049
:1008300080808000000E112020A0FF80808080003A
:100840008080800020203F21200001000000808067
:10085000808080000033242424241900008080E05C
:10086000808000000000001F202000008080000029
:1008700000808000001F202020103F20808080000A
:100880000080808000010E3008060100808000801A
:10089000008080800F300C030C300F00008080003F
:1008A000808080000020312E0E312000808080006A
:1008B0000080808080818E7018060100008080801A
:1008C000808080000021302C2221300000000000B8
:1008D000807C020200000000003F40400000000059
:1008E000FF00000000000000FF0000000002027C8A
:1008F000800000000040403F0000000000060101B1
:1009000002020404000000000000000012006BFA64
:10091000090012006B1F0A0012006B460A00120049
:100920006B6D0A0012006B950A0012006BD10A0071
:1009300012006B070B0012006BC30B0012006BB8A8
:100940000C0012006B410D002510C582C0E0E511BE
:1009500034FFC583C0E0E510C3958224F810AF08CA
:100960008583118582108008858311858210D2AF1E
:10097000CEF0A3E520F0A37808E608F0A3DEFAEFB6
:10098000F0A3E58124FAF8E608F0A3E608F0A3E670
:1009900008F0A30808E608F0A3E608F0A3158115FF
:1009A00081D0E0FED0E0F8158115811581E8C0E026
:1009B000EEC0E022851183851082E0A3FEE0A3F55E
:1009C000207808E0A3F608DFFAE0A3FFE0A3C0E088
:1009D000E0A3C0E0E0A3C0E0E0A3C0E0E0A3C0E08B
:1009E00010AF088582108583118008858210858369
:1009F00011D2AFD083D082020068801C78087907BA
:100A0000E8FCE9FDEC24FFF8ED34FFF9EC4D70F063
:100A1000EA24FFFAEB34FFFBEA4B70E0020068784F
:100A2000087400D28078008009D293D292E9C3334F
:100A3000F908E8C39408500BC29274805970EAC256
:100A40009380E802006878087400C280780080090A
:100A5000D293D292E9C333F908E8C39408500BC289
:100A60009274805970EAC29380E802006874F712A9
:100A70000948E9FEEAFF74B02FF9120918EEC454D0
:100A80000F4410F9120918740F5E4401F912091885
:100A90007F010209B474F7120948E9FE7508008065
:100AA0000EEEF91209120FEFC3948040F40508E529
:100AB00008C39408501674B02508F9120918790172
:100AC00012091879101209187F0080DB7F010209D2
:100AD000B474F71209487F00800D79001209120ED4
:100AE000EEC3948040F40FEFC39408501574B02FF8
:100AF000F9120918790112091879101209187E00E3
:100B000080DE7F010209B4C082C08353F3FE43FD3F
:100B10000153F47343FE8CD292C2977A327B001257
:100B2000090CD29779AE12091879001209187910B8
:100B30001209187940120918798112091879CF120F
:100B4000091879A112091879C812091879A6120989
:100B50001879A8120918793F12091879D3120918BF
:100B6000790012091879D5120918798012091879B3
:100B7000D912091879F112091879DA1209187912BB
:100B800012091879DB120918794012091879201214
:100B900009187902120918798D12091879141209A5
:100BA0001879A412091879A612091879AF12091830
:100BB00079FF1209247A00790012091ED083D082AD
:100BC00002006874F0120948E9FEEAFF8C0E8D0FEE
:100BD000750C007508007509008047E50CA80C79B4
:100BE00000E875F010A4C8AAF075F000A42AFA7500
:100BF000F010E9A42AF985080A750B00E8250AF81F
:100C0000E9350BF974A128F582740439F583E0F90C
:100C10001209120508E508C3940840BF74082EFEA7
:100C2000050985090A750B00E50E250AF582E50F11
:100C3000350BF583E0607C85090A750B00E50E2510
:100C40000AF582E50F350BF583E024E0F50CEEC3E1
:100C5000947940037E000FEFFAEEF912091E750831
:100C600000803AE50CA80C7900E875F010A4C8AA39
:100C7000F075F000A42AFA75F010E9A42AF98508A5
:100C80000A750B00E8250AF8E9350BF9749928F57F
:100C900082740439F583E0F91209120508E508C3E6
:100CA000940840BF74012FFAEEF912091E7508006E
:100CB000020C157F080209B474F412094889088AE5
:100CC0000A8B0B750900E50BAE0B7F00EE75F0206B
:100CD000A4CEA8F075F000A428F875F020EFA428A1
:100CE000FFAA0AA90812091E750900801974192E95
:100CF000F58274023FF583E0F9120912EE2401FE39
:100D0000EF3400FF0509E509C3941040E0740125A4
:100D10000AFAA90812091E750900801974192EF51E
:100D20008274023FF583E0F9120912EE2401FEEF0E
:100D30003400FF0509E509C3941040E07F0402096F
:100D4000B474F71209487E007F007E007F00801790
:100D5000EEFB7A0075F010EE2402A4F912093CEEC5
:100D60002401FEEF3400FFC3EE9404EF9400A2D2FE
:100D700065D03340DB7E007F008019EE2404FB7ACF
:100D80000275F010EEA42408F912093CEE2401FECD
:100D9000EF3400FFC3EE9407EF9400A2D265D03386
:100DA00040D97C007D027A0479101209367C0E7DD0
:100DB000027A0679201209367F010209B47E0012F8
:0A0DC000093012092A12094280FED0
:0400000500000050A7
:00000001FF
