:020000040000FA
:1000000002003700000080FB120061B9000302000B
:1000100021E4900001780579018002F0A3D8FCD991
:10002000FA75827F75830074001200437582037530
:100030008300740012004375D0007581BF759F0066
:10004000020008C09FF59FE473D09F22D083D08226
:10005000C09FE493C0E0740193C0E0740293F59FE5
:100060002279012212004C6A000075FE0375FD1012
:10007000D290D291D28475E40575AF210200491265
:1000800000648010C2F0A2F0E433F879009000031D
:10009000F0A3E9F0E5C0C39401404775C0009000AB
:1000A00001E02401F0A3E03400F0900001E0640FCF
:1000B0007004A3E06400702A9000017400F0A3743F
:1000C00000F0900003E0F8A3E0F9E8497004D2F0F2
:1000D0008002C2F0A2F0E433F87900900003F0A3AC
:1000E000E9F0900003E0F8A3E0F9E84960A6A290E7
:1000F0009291D2F0A29130F001B39284D2F0A2900A
:1001000030F001B39290900003E0F8A3E0F9E849E1
:0A0110006003020084D2F0020086B2
:0400000500000037C0
:00000001FF
