:020000040000FA
:1000000002002700000080FB120051B9000302002B
:10001000117582897583007400120033758203752F
:100020008300740012003375D0007581BF759F0086
:10003000020008C09FF59FE473D09F22D083D08236
:10004000C09FE493C0E0740193C0E0740293F59FF5
:100050002279012212003C5A00007C007D008019A8
:10006000E82401F8E93400F9C3E89417E994024060
:10007000EFEC2401FCED3400FDC3EC9AED9B50063F
:100080007800790080E202003943FD10D2847AB80A
:100090007B0B120054C2847AB87B0B12005480ECA4
:0400000500000027D0
:00000001FF
