:020000040000FA
:030000000200E318
:030033000204655F
:03006B0002039FEE
:03007B000203F885
:1000830002036700000080FB120113B900030200A2
:10009300CDE490010178BE79018002F0A3D8FCD9A8
:1000A300FA9001BEAA82AB83900116781179018080
:1000B30015E493A3AC82AD838A828B83F0A3AA82D7
:1000C300AB838C828D83D8E9D9E775829C758307CE
:1000D30074001200F575828675830074001200F5B2
:1000E30075D0007581BF751001751101759F0002F0
:1000F300008BC09FF59FE473D09F22D083D082C032
:100103009FE493C0E0740193C0E0740293F59F22CF
:10011300790122FF00000000000000000000000041
:100123000000001200FEBC04001200FEA505001230
:1001330000FE3C06001200FE7006001200FE990647
:10014300001200FEC606001200FEED06001200FEBD
:100153001007001200FE2807001200FE3D070012E0
:1001630000FE4D07001200FE6E07001200FE650838
:1001730000E0FAA3E0FBA3E0FCA3E0FD22EAF0A386
:10018300EBF0A3ECF0A3EDF022CAC0E0E6F0A30885
:10019300DAFAD0E0FA22700422600D18C6C333C61F
:1001A30008C633C6D5E0F41822C0D0251010AF0816
:1001B300F510500205118008F51050020511D2AF59
:1001C300D0D0222510F58210AF08F510400215118A
:1001D3008008F51040021511D2AF85118322251036
:1001E300F582E43511F58322E4732510C582C0E05E
:1001F300E51134FFC583C0E0E510C3958224F810F0
:10020300AF0885831185821080088583118582104C
:10021300D2AFCEF0A3E520F0A37808E608F0A3DE82
:10022300FAEFF0A3E58124FAF8E608F0A3E608F074
:10023300A3E608F0A30808E608F0A3E608F0A31570
:10024300811581D0E0FED0E0F8158115811581E894
:10025300C0E0EEC0E022851183851082E0A3FEE0BA
:10026300A3F5207808E0A3F608DFFAE0A3FFE0A3F4
:10027300C0E0E0A3C0E0E0A3C0E0E0A3C0E0E0A3EF
:10028300C0E010AF08858210858311800885821035
:10029300858311D2AFD083D0820200FBC0D025105A
:1002A300C582C0E0E51134FFC583C0E0E510C39506
:1002B3008224F310AF08858311858210800885831B
:1002C30011858210D2AFC8F0A3E9F0A3EAF0A3EB43
:1002D300F0A37908E709F0A3D8FAECF0A3EDF0A3B3
:1002E300EEF0A3EFF0A3D0E0F0A3D0E0F0A3D0E0D2
:1002F300F0A3E520F0A3E5F0F0A322851183851098
:1003030082E0C0E0A3E0F9A3E0FAA3E0FBA378084E
:10031300E0F608A3DFFAE0FCA3E0FDA3E0FEA3E020
:10032300FFA3E0C0E0A3E0C0E0A3E0F5D0A3E0F5C5
:1003330020A3E0A3F5F010AF088583118582108018
:1003430008858311858210D2AFD082D083D0E0F8A4
:10035300D0E03274028000C0E0F4041201C6D0E0A1
:1003630012018C22C0E074F212029FA2AFE433FEAA
:10037300C2AFE5E9A2E6501A90018AE0F8A3E0F9DA
:10038300E8496008E0F58388821201EB759B00530E
:10039300E9BFEEA2E092AF7F010202FEC0E074F17A
:1003A30012029FC2C5E58960477E00750801750981
:1003B30000EE7808120199AF08E5895F602BEEC360
:1003C30033F8E433F9748C28F582740112044E6017
:1003D30014EEC333F8E433F9748C28F582740112F4
:1003E30004591201EBEFF452890EEEC3940840BB9B
:1003F3007F020202FEC0E074F112029FC2EBE58AA3
:1004030060477E00750801750900EE7808120199AE
:10041300AF08E58A5F602BEEC333F8E433F9749CCD
:1004230028F582740112044E6014EEC333F8E433EA
:10043300F9749C28F58274011204591201EBEFF44C
:10044300528A0EEEC3940840BB80A539F583E0F8C9
:10045300A3E0F9E8492239F583E0F8A3E0F58388BE
:100463008222C0E074F112029FC2E8E58B60477EEE
:1004730000750801750900EE7808120199AF08E5C7
:100483008B5F602BEEC333F8E433F974AC28F58249
:10049300740112044E6014EEC333F8E433F974AC00
:1004A30028F58274011204591201EBEFF4528B0EFA
:1004B300EEC3940540BB0203F3C082C0831201560E
:1004C300D2AF79017A0A7B0112015090010AE0C28E
:1004D300E7F06405703579051205975004D2F08072
:1004E30002C2F0A2F0E4339001C6F090010FE0A243
:1004F300E7400302058F90010DE0F8900101E068E9
:10050300600302058FA3740102058EE024F59001B8
:10051300C3F090010AE0F91205975004D2F080026B
:10052300C2F0A2F0E4339001C6F0900112E0F8A308
:10053300E0F99001BFE8F0A3E9F09001C47414F06E
:10054300A37401F09001C3E0F83395E0F974142823
:10055300F8740139F988828983E09001C7F08882B1
:100563008983A3E0A2E7501C9001BEE0F890010D3F
:10057300E068601090010BE054DF64417006900165
:10058300C87401F090010DE09001BEF0C2AF1201FA
:100593005C0207367A0B7B0112015090010BE0A23B
:1005A300E52274F71201EDEAFEEBFF12014AE9645A
:1005B3000170047901806FC2AF900108EEF0A3EFE0
:1005C300F09001C4E4F0A3F090010304F09001CA99
:1005D30012017490010412018075F00512062EA316
:1005E300A3E0A424D490618FF0900109E0F58388FF
:1005F30082E0F8A3E0F9E8906174F0E9A3F0120651
:100603002EE0F8A3E0F9E8906172F0E9A3F0E5A821
:10061300F8C2AF90018A7426F0A37401F0E8A2E750
:1006230092AFD2AF79007F01020259900108E0F83E
:10063300A3E0F5838882A3A322E5C65480F853BEC2
:10064300FBE59DA2E550FAE59DA2E240F4007401AA
:10065300697007744948F5C68005E9700288C6E5E4
:10066300C6F8E59E6870FB43BE040200FBE9F8E5AB
:100673009EA2E640047901801AE8700553C67F8084
:1006830008740168700343C680E5C6F9E59E697086
:10069300FB79000200FBEBC313FBEA13FAEAF8EB66
:1006A300F9E824FFFAE934FFFBE84960130000008E
:1006B300000000000000000000000000000080DDDA
:1006C3000200FB74F71201EDEAFEEBFFEEF8EFF91F
:1006D300E824FFFEE934FFFFE84960097AE87B0379
:1006E30012013E80E77F01020259C082C0839061FC
:1006F30089E04460F09061FA7409F09061B2741576
:10070300F09061AEE4F012015C79008026C082C0F3
:1007130083800DE5D98A828B83F0A3AA82AB8319E8
:10072300E970F0800EC082C0839061A3E0C2E6F05E
:10073300539AFED083D0820200FBC082C0839061B3
:10074300A3E0D2E6F0439A0180E9C082C083790135
:10075300120168790212016879031201687904129F
:1007630001687A327B0012014480E3C082C083E9CE
:1007730014600B14600D14600F14601180196390E2
:10078300018014639002800F639010800A638002DB
:100793009001B6E06401F0809A9001BA7407F0A367
:1007A3007420F0A37419F0A37401F07900120138D6
:1007B300E9601079011201327900120138E960030E
:1007C300120162790012013243FE01C29053F3FD1C
:1007D30053FDFD438F0253F5FE53FFFE43F70143E1
:1007E300F340D2AF12014AE964017003120162D2ED
:1007F300909001B874EFF0A374BEF07AB87B011245
:10080300012CE9640170031201629001037401F089
:1008130075E1EC75E1E38037750801750900780827
:100823001203569001C4E0FCA3E0FD7AB77B0112EA
:10083300016E74021201AC9001C8E4F0D2AF9001D2
:10084300C3E0600B9001B7E0700579011201689075
:1008530001C8E060FAC2AF9001C3E070BB75080045
:1008630080B974F61201ED740A1201E1E0FEA3E00F
:10087300FFEAF8EBF980188C828D83E08882898304
:10088300F0A3A882A9838C828D83A3AC82AD838ECF
:10089300088F09E50824FF1EE50934FFFFE5084535
:0808A3000970D47F0202025922
:04000005000000E314
:00000001FF
