:020000040000FA
:1000000002002700000080FB120051B9000302002B
:100010001175826075830074001200337582037558
:100020008300740012003375D0007581BF759F0086
:10003000020008C09FF59FE473D09F22D083D08236
:10004000C09FE493C0E0740193C0E0740293F59FF5
:100050002279012212003CD5000012003CE8000089
:100060007508587509027E007F0012005AD2907AF6
:10007000607BEA1200547E017F00801FC290EEFA7E
:10008000EFFB120054D290E508C39EFAE5099FFBEE
:10009000120054EE2401FEEF3400FFC3EE9508EF8A
:1000A000950940D8C290E50824FFFEE50934FFFF1A
:1000B000EE4F60B9C290EEFAEFFB120054D290E519
:1000C00008C39EFAE5099FFB120054EE24FFFEEFE1
:1000D00034FFFF80DBEA24FFF8EB34FFF9E8FAE9AC
:0E00E000FBE84970F002003943FE01020039CE
:0400000500000027D0
:00000001FF
