:020000040000FA
:1000000002002700000080FB120051B9000302002B
:10001000117582DB758300740012003375820375DD
:100020008300740012003375D0007581BF759F0086
:10003000020008C09FF59FE473D09F22D083D08236
:10004000C09FE493C0E0740193C0E0740293F59FF5
:100050002279012212003C60000012003CCC00001A
:10006000780079008008E82401F8E93400F9C3E851
:100070009AE99B40F1780079008008E82401F8E9CA
:100080003400F9C3E89AE99B40F1780079008008D0
:10009000E82401F8E93400F9C3E89AE99B40F178D3
:1000A0000079008008E82401F8E93400F9C3E89AEF
:1000B000E99B40F1780079008008E82401F8E934F0
:1000C00000F9C3E89AE99B40F102003943FE13436B
:1000D000FD10D290D291D28402003912005AD2F08F
:1000E000A29030F001B392907A507BC3120054D2A8
:1000F000F0A29130F001B392917A507BC312005478
:10010000D2F0A28430F001B392847A507BC3120003
:030110005480CB4D
:0400000500000027D0
:00000001FF
