:020000040000FA
:1000000002002700000080FB120051B9000302002B
:1000100011758206758301740012003375820375B1
:100020008300740012003375D0007581BF759F0086
:10003000020008C09FF59FE473D09F22D083D08236
:10004000C09FE493C0E0740193C0E0740293F59FF5
:100050002279012212003C6C000012003C76000064
:1000600012003C7F000012003C9A000043FE03D2C5
:1000700090D29102003975C90043C908020039EADB
:100080004B600B43C640E59EA2E6400B80F853C68A
:10009000B8E59EA2E640FA020039780079008008AF
:1000A000E82401F8E93400F9C3E89AE99B40F178C3
:1000B0000079008008E82401F8E93400F9C3E89ADF
:1000C000E99B40F1780079008008E82401F8E934E0
:1000D00000F9C3E89AE99B40F1780079008008E8CC
:1000E0002401F8E93400F9C3E89AE99B40F178006B
:1000F00079008008E82401F8E93400F9C3E89AE9B6
:100100009B40F10200397A007B001200601200541B
:1001100012005A7A107B27120066C290C29180FEAC
:0400000500000027D0
:00000001FF
