:020000040000FA
:030000000200E318
:030033000205982B
:03004B000204B9F3
:03006B000204D2BA
:03007B0002053645
:1000830002048500000080FB120113B90003020083
:10009300CDE4900200783E79028002F0A3D8FCD927
:1000A300FA90033DAA82AB83900116788779018089
:1000B30015E493A3AC82AD838A828B83F0A3AA82D7
:1000C300AB838C828D83D8E9D9E775826F75830CF6
:1000D30074001200F575828675830074001200F5B2
:1000E30075D0007581BF751000751102759F0002F0
:1000F300008BC09FF59FE473D09F22D083D082C032
:100103009FE493C0E0740193C0E0740293F59F22CF
:100113007901223234323000323433300032343316
:10012300310032353230003235333000323533313D
:100133000032353130003235313100313131300068
:1001430031313131002D2D2D2D00202020434378D6
:100153007878782028202900202020000000000043
:10016300000000000000000000000000000000008C
:1001730000000000000050455220546573746572FE
:1001830000FF00000000000000000000000000006D
:1001930000E8030000010000001200FEEF0500125A
:1001A30000FED806001200FE5907001200FE970851
:1001B300001200FECB08001200FEF408001200FE3D
:1001C3002109001200FE4809001200FE6B0900120B
:1001D30000FE8309001200FE9309001200FEA80925
:1001E300001200FEC909001200FE170A001200FEE9
:1001F300410A001200FE700A001200FE8B0B00126F
:1002030000FE980B001200FE1B0D001200FE510DA4
:10021300001200FEB80C00C008C3E096F50808A35E
:10022300E096420808A3E096420808A3E096450832
:100233007001D3D00822E026F008A3E036F008A32B
:10024300E036F008A3E036F022E0F608A3E0F60873
:10025300A3E0F608A3E0F622E0FAA3E0FBA3E0FCA8
:10026300A3E0FD22EAF0A3EBF0A3ECF0A3EDF02270
:10027300CAC0E0E6F0A308DAFAD0E0FA22CAC0E086
:10028300E0A3C582CCC582C583CDC583F0A3C58257
:10029300CCC582C583CDC583DAE6D0E0CA2270041B
:1002A30022600D18C6C333C608C633C6D5E0F4189A
:1002B30022251010AF08F510400215118008F51023
:1002C30040021511D2AF22C0D0251010AF08F5108F
:1002D300500205118008F51050020511D2AFD0D09D
:1002E300222510F58210AF08F51040021511800881
:1002F300F51040021511D2AF851183222510F58226
:10030300E43511F58322E4732510C582C0E0E511BD
:1003130034FFC583C0E0E510C3958224F810AF080D
:100323008583118582108008858311858210D2AF61
:10033300CEF0A3E520F0A37808E608F0A3DEFAEFF9
:10034300F0A3E58124FAF8E608F0A3E608F0A3E6B3
:1003530008F0A30808E608F0A3E608F0A315811542
:1003630081D0E0FED0E0F8158115811581E8C0E069
:10037300EEC0E022851183851082E0A3FEE0A3F5A1
:10038300207808E0A3F608DFFAE0A3FFE0A3C0E0CB
:10039300E0A3C0E0E0A3C0E0E0A3C0E0E0A3C0E0CE
:1003A30010AF0885821085831180088582108583AC
:1003B30011D2AFD083D0820200FBC0D02510C582FA
:1003C300C0E0E51134FFC583C0E0E510C395822486
:1003D300F310AF088583118582108008858311850A
:1003E3008210D2AFC8F0A3E9F0A3EAF0A3EBF0A325
:1003F3007908E709F0A3D8FAECF0A3EDF0A3EEF047
:10040300A3EFF0A3D0E0F0A3D0E0F0A3D0E0F0A3FB
:10041300E520F0A3E5F0F0A322851183851082E0A7
:10042300C0E0A3E0F9A3E0FAA3E0FBA37808E0F6B9
:1004330008A3DFFAE0FCA3E0FDA3E0FEA3E0FFA333
:10044300E0C0E0A3E0C0E0A3E0F5D0A3E0F520A383
:10045300E0A3F5F010AF088583118582108008852D
:100463008311858210D2AFD082D083D0E0F8D0E060
:100473003274028000C0E0F4041202E4D0E01202FD
:100483007322C0E074F21203BDA2AFE433FEC2AF25
:10049300E5E9A2E650169002FC12052E6008E0F58D
:1004A300838882120309759B0053E9BFEEA2E09291
:1004B300AF7F0102041CC0E074F21203BD9002FE80
:1004C30012052E6008E0F583888212030980E2C0DA
:1004D300E074F11203BDC2C5E58960477E0075086B
:1004E30001750900EE78081202A1AF08E5895F6083
:1004F3002BEEC333F8E433F9740028F58274031246
:10050300052B6014EEC333F8E433F9740028F58245
:10051300740312058C120309EFF452890EEEC3948F
:100523000840BB7F0202041C39F583E0F8A3E0F91D
:10053300E84922C0E074F11203BDC2EBE58A6047CB
:100543007E00750801750900EE78081202A1AF0854
:10055300E58A5F602BEEC333F8E433F9741028F5B2
:1005630082740312052B6014EEC333F8E433F97479
:100573001028F582740312058C120309EFF4528AD2
:100583000EEEC3940840BB809A39F583E0F8A3E0EC
:10059300F583888222C0E074F11203BDC2E8E58BC3
:1005A30060477E00750801750900EE78081202A104
:1005B300AF08E58B5F602BEEC333F8E433F97420A7
:1005C30028F582740312052B6014EEC333F8E43369
:1005D300F9742028F582740312058C120309EFF4D1
:1005E300528B0EEEC3940540BB020526C082C08326
:1005F3001201D2D2AF79017A7C7B021201CC900234
:100603007CE0C2E7F06405703579051206CA500430
:10061300D2F08002C2F0A2F0E4339003B3F0900270
:1006230081E0A2E740030206C290027FE0F8900255
:1006330000E06860030206C2A374010206C1E0245D
:10064300F59003B0F090027CE0F91206CA5004D290
:10065300F08002C2F0A2F0E4339003B3F09002847E
:10066300E0F8A3E0F99003ACE8F0A3E9F09003B15C
:100673007486F0A37402F09003B0E0F83395E0F9C8
:10068300748628F8740239F988828983E09003B468
:10069300F088828983A3E0A2E7501C9003ABE0F8C3
:1006A30090027FE068601090027DE054DF64417047
:1006B300069003B57401F090027FE09003ABF0C2A3
:1006C300AF1201D80209A17A7D7B021201CC9002FC
:1006D3007DE0A2E52274F712030BEAFEEBFF1201A1
:1006E300C6E96401700479018067C2AF900207EE26
:1006F300F0A3EFF09003B1E4F0A3F090020204F052
:100703009003B712025B90020312026775F00512A1
:100713000887E0A424D490618FF09002081208693E
:10072300E8906174F0E9A3F0900207E0F8A31208DF
:1007330074E8906172F0E9A3F0E5A8F8C2AF900203
:10074300FC749CF0A37401F0E8A2E792AFD2AF79F6
:10075300007F0102037774F512030BEAFEEBFF8CB3
:10076300088D09890A900202E0700675E1EC75E1D3
:10077300E3E9C394674003750A67906193E05422E9
:1007830070F81201D2740B250A900209F012088145
:1007930090020A6004746180027441F0A37488F0CB
:1007A300900200E090020CF090020812087490028C
:1007B3000DE8F0A3E9F0A3EEF0A3EFF0900207E059
:1007C300F8A3120869900211E8F0A3E9F07A008017
:1007D300218A82A882E50828F582E5093400F58399
:1007E300E0C0E0741328F58274023400F583D0E08E
:1007F300F00AEAC3950A40D9740A250AF975E1EEAD
:100803007591FD78008012880874092508F58274B3
:10081300023400F583E0F5D908E8C39940E91201F1
:10082300D875E1E9E591A2E150FA7591FD120881CD
:100833006012900201E4F07A4A7B021201BA90023C
:1008430001E06004790080027901900202E0700601
:1008530075E1EF75E1ECE9A2E04006900200E004E7
:10086300F07F03020377E0F5838882E0F8A3E0F9E1
:1008730022E0F5838882A3A3E0F8A3E0F92212081B
:1008830087A3E022900207E0F8A3E0F5838882A320
:10089300A3A3A322E5C65480F853BEFBE59DA2E5BE
:1008A30050FAE59DA2E240F40074016970077449AF
:1008B30048F5C68005E9700288C6E5C6F8E59E6876
:1008C30070FB43BE040200FBE9F8E59EA2E6400488
:1008D3007901801AE8700553C67F80087401687037
:1008E3000343C680E5C6F9E59E6970FB7900020003
:1008F300FBEBC313FBEA13FAEAF8EBF9E824FFFA7C
:10090300E934FFFBE8496013000000000000000029
:1009130000000000000000000080DD0200FB74F70F
:1009230012030BEAFEEBFFEEF8EFF9E824FFFEE912
:1009330034FFFFE84960097AE87B031201BA80E7D4
:100943007F01020377C082C083906189E04460F035
:100953009061FA7409F09061B27415F09061AEE49D
:10096300F01201D879008036C082C083800DE5D9AA
:100973008A828B83F0A3AA82AB8319E970F0801E6D
:10098300C082C0839061A3E0C2E6F0539AFE800E5A
:10099300C082C0839061A3E0D2E6F0439A01D08382
:1009A300D0820200FBC082C08379011201F0790278
:1009B3001201F079031201F079041201F07A327B0B
:1009C300001201C080E3C082C08379001201B4E940
:1009D300601079011201AE79001201B4E9600312CB
:1009E30001DE79001201AE43FE01C29043FE02C252
:1009F3009143FE10C29443FD02C28153F3EF53FDB2
:100A0300EF438F1053F5FE53FFFE43F70143F340CB
:100A1300D2AF808AC082C083E914600B14600C14C7
:100A2300600D14600E8014D2908010D291800CD28D
:100A3300948008D28190032A7401F00209A1C08234
:100A4300C083E914600B14600D14600F14601180EF
:100A5300196390018014639002800F639010800AE1
:100A630063800290032AE06401F00209A174F41286
:100A7300030B74D41202B48A088B09851082851182
:100A830083AC82AD83758303758274740E12028006
:100A9300740E1202FFAC82AD837583037582827478
:100AA3001E12028090624AE014602A14605724F1F7
:100AB300601D2490602B24FD603914604224FC6087
:100AC3003824F8601624EC602424F0601A803C7CFF
:100AD3006A7D03803A7C657D0380347C607D03807E
:100AE3002E7C5B7D0380287C567D0380227C517D98
:100AF30003801C7C4C7D0380167C477D0380107C27
:100B0300427D03800A7C3D7D0380047C6F7D0375F9
:100B13000A04750B00780A12047474071202FFAA00
:100B230082AB8312021474021202CA906249E0C4B7
:100B3300540F2430C0E0740B1202FFD0E0F0AA0877
:100B4300AB0912020E8A0A8B0BAE0AAF0B740E129C
:100B530002FFAA82AB8312020E8A0A8B0BEE250ACE
:100B6300F8EF350BF9C3E89411E994005010AC0881
:100B7300AD09740E1202FFAA82AB83120208742C11
:100B83001202CA7F04020377C082C08390033B74BE
:100B930001F00209A174F012030B9003B7780C1251
:100BA300024C90032B7420F0A37425F07A2B7B0363
:100BB3001201A2E9640170031201DE90619074F5E1
:100BC300F0900202E4F075E1EF75E1EC43E40C759B
:100BD300DB0575DA1875E54453AFFEC2B9E5A8F82D
:100BE300C2AF9002FE74FCF0A37401F0E8A2E79296
:100BF300AF9003B712025B9003311202677800884B
:100C03000874352508F58274033400F583E8F00889
:100C130004C3940640E990033CE060FA9003BB7878
:100C23000C12021A4030790A7C317D037AEF7BBEC5
:100C33001201A89003BF780812024C900331780880
:100C430012023990033BE4F079011201F07AF47B4C
:100C5300011201C0800C90033CE070047401800118
:100C6300E4F09003B7780C12024C80AA90033BE4A3
:100C7300F090033C04F090032D7407F0A37420F06C
:100C8300900330E4F01201E41201C6E96401700339
:100C93001201DE79011201EA7AA07B031201F67ACE
:100CA3005E7B011201C090032F740BF0120202123B
:100CB30001DE0200FB74F612030B740A1202FFE05A
:100CC300FEA3E0FFEAF8EBF98E088F09E50824FF9D
:100CD3001EE50934FFFFE508450960338C828D83E7
:100CE300E0A3AC82AD838A828B83F0A3AA82AB8319
:100CF30070D6EEFCEFFDEC24FF1EED34FFFFEC4D50
:100D0300600D8A828B83E4F0A3AA82AB8380E3E83D
:100D1300FAE9FB7F0202037774F712030BEAF8EB9D
:100D2300F98005A3AA82AB838A828B83E070F48C5B
:100D3300828D83E0A3AC82AD838A828B83F0A3AAE6
:100D430082AB8370EAE8FAE9FB7F01020377C08292
:100D5300C0838A828B838001A3E070FCE582C39AFF
:0C0D6300FAE5839BFBD083D0820200FBEA
:04000005000000E314
:00000001FF
